:100000000C94DF000C9407010C9407010C94070179
:100010000C9407010C9407010C9407010C94070140
:100020000C9407010C9407010C9407010C94070130
:100030000C9407010C9407010C9407010C94070120
:100040000C9449060C9407010C9417060C94F105C6
:100050000C9407010C9407010C9407010C94070100
:100060000C9407010C94070100407A10F35A00A089
:10007000724E18090010A5D4E80000E87648170071
:1000800000E40B54020000CA9A3B000000E1F505B1
:10009000000080969800000040420F000000A086FB
:1000A00001000000102700000000E803000000002D
:1000B0006400000000000A000000000001000000D1
:1000C00000002C76D888DC674F0823DFC1DFAE59EB
:1000D000E1B1B796E5E3E453C63AE651997696E87E
:1000E000E6C28426EB898C9B62ED407C6FFCEFBC02
:1000F0009C9F40F2BAA56FA5F490055A2AF75C932D
:100100006B6CF9676DC11BFCE0E40D47FEF520E662
:10011000B500D0ED902E0300943577050080841E45
:10012000080000204E0A000000C80C333333330FA0
:10013000986E12831141EF8D2114893BE65516CF3D
:10014000FEE6DB18D1844B381BF77C1D901DA4BB49
:10015000E424203284725E228100C9F124ECA1E5FE
:100160003D2700000000240027002A0000000000B6
:10017000250028002B000000000023002600290095
:10018000040404040404040402020202020203033D
:100190000303030301020408102040800102040845
:1001A00010200102040810200000000800020100D5
:1001B0000003040700000000000000009306112463
:1001C0001FBECFEFD8E0DEBFCDBF22E0AEEBB1E087
:1001D00001C01D92AC3EB207E1F711E0A0E0B1E032
:1001E000E2E3FBE202C005900D92AE3BB107D9F706
:1001F00010E0CFEDD0E004C02197FE010E949F13D4
:10020000CE3DD107C9F70E94EA060C9497150C94CD
:100210000000E9EFF1E0A089B18982E08C93A48528
:10022000B5851C92A685B7858FEC8C93108EA4891A
:10023000B58986E08C93A289B3898C9180618C9377
:10024000A289B3898C9188608C93A289B3898C919F
:1002500080688C930288F389E02D80818F7D808374
:100260000895AF92BF92CF92DF92EF92FF920F93D9
:100270001F93CF93DF936C017B018B01040F151F3C
:10028000EB015E01AE18BF08C017D10759F06991A4
:10029000D601ED91FC910190F081E02DC601099508
:1002A000892B79F7C501DF91CF911F910F91FF90B5
:1002B000EF90DF90CF90BF90AF900895FC01538DE9
:1002C000448D252F30E0842F90E0821B930B541730
:1002D00010F0CF96089501970895FC01918D828DBD
:1002E000981761F0A28DAE0FBF2FB11D5D968C9156
:1002F000928D9F5F9F73928F90E008958FEF9FEF95
:100300000895FC01918D828D981731F0828DE80F50
:10031000F11D858D90E008958FEF9FEF0895FC010A
:10032000918D228D892F90E0805C9F4F821B9109D7
:100330008F739927089589EF91E00E948F0121E042
:10034000892B09F420E0822F089580E090E0892B2A
:1003500029F00E949B0181110C9400000895FC017A
:10036000A48DA80FB92FB11DA35ABF4F2C91848D16
:1003700090E001968F739927848FA689B7892C9373
:10038000A089B1898C91837080648C93938D848DC6
:10039000981306C00288F389E02D80818F7D8083C9
:1003A0000895EF92FF920F931F93CF93DF93EC0189
:1003B00081E0888F9B8D8C8D98131AC0E889F9890C
:1003C000808185FF15C09FB7F894EE89FF8960830F
:1003D000E889F98980818370806480839FBF81E090
:1003E00090E0DF91CF911F910F91FF90EF900895D2
:1003F000F62E0B8D10E00F5F1F4F0F731127E02EAD
:100400008C8D8E110CC00FB607FCFACFE889F989E4
:10041000808185FFF5CFCE010E94AF01F1CFEB8D3A
:10042000EC0FFD2FF11DE35AFF4FF0829FB7F894B8
:100430000B8FEA89FB8980818062CFCFCF93DF93D6
:10044000EC01888D8823B9F0AA89BB89E889F989EC
:100450008C9185FD03C0808186FD0DC00FB607FC21
:10046000F7CF8C9185FFF2CF808185FFEDCFCE0154
:100470000E94AF01E9CFDF91CF910895833081F0E1
:1004800028F4813099F08230A9F008958730A9F0DE
:100490008830C9F08430B1F4809180008F7D03C032
:1004A000809180008F7780938000089584B58F7746
:1004B00084BD089584B58F7DFBCF8091B0008F7788
:1004C0008093B00008958091B0008F7DF9CFCF93D5
:1004D000DF93282F30E0F901E855FE4F8491F901B0
:1004E000EC56FE4FD491F901E058FE4FC491CC2355
:1004F000A1F081110E943E02EC2FF0E0EE0FFF1FF1
:10050000EA58FE4FA591B491EC91ED2381E090E083
:1005100009F480E0DF91CF91089580E090E0FACF78
:100520001F93CF93DF93282F30E0F901E855FE4F5A
:100530008491F901EC56FE4FD491F901E058FE4F39
:10054000C491CC23A9F0162F81110E943E02EC2FFA
:10055000F0E0EE0FFF1FE459FE4FA591B4918FB765
:10056000F894EC91111108C0D095DE23DC938FBF75
:10057000DF91CF911F910895DE2BF8CFCF93DF93BA
:1005800090E0FC01EC56FE4F249180589E4FFC01F8
:1005900084918823C9F090E0880F991FFC01EE59DF
:1005A000FE4FA591B491FC01E459FE4FC591D49141
:1005B00061110DC09FB7F8948C91209582238C9384
:1005C0008881282328839FBFDF91CF9108956230CF
:1005D00051F49FB7F8943C91822F809583238C939C
:1005E000E8812E2BEFCF8FB7F894EC912E2B2C9324
:1005F0008FBFEACF3FB7F8948091C3019091C401B7
:10060000A091C501B091C60126B5A89B05C02F3F9A
:1006100019F00196A11DB11D3FBFBA2FA92F982F28
:100620008827BC01CD01620F711D811D911D42E023
:10063000660F771F881F991F4A95D1F708958F92EB
:100640009F92AF92BF92CF92DF92EF92FF924B01B7
:100650005C010E94FA026B017C010E94FA026C1993
:100660007D098E099F09683E734081059105A8F3B5
:1006700021E0821A9108A108B10888EEC80E83E033
:10068000D81EE11CF11C81149104A104B10429F7C6
:10069000FF90EF90DF90CF90BF90AF909F908F90A2
:1006A00008952FB7F8946091BF017091C0018091B7
:1006B000C1019091C2012FBF0895FC01019000205B
:1006C000E9F73197AF01481B590BBC0189EF91E065
:1006D0000C9431018F929F92AF92BF920F931F9310
:1006E000CF93DF93CDB7DEB7A1970FB6F894DEBFF7
:1006F0000FBECDBF19A2423008F44AE08E010F5D53
:100700001F4F842E912CB12CA12CA50194010E9485
:10071000FF11E62FB901CA01EA30F4F4E05DD80117
:10072000EE938D01232B242B252B79F790E080E08D
:10073000109719F0CD010E945D03A1960FB6F894B1
:10074000DEBF0FBECDBFDF91CF911F910F91BF9044
:10075000AF909F908F900895E95CE1CF0C945D037A
:100760004F925F926F927F928F929F92AF92BF92C1
:10077000CF92DF92EF92FF920F931F93CF936B0173
:100780007C01742EAC019B010E947213882399F0A6
:1007900088E391E0CF911F910F91FF90EF90DF9050
:1007A000CF90BF90AF909F908F907F906F905F9011
:1007B0004F900C945D0346015701E894B7F82FEF72
:1007C0003FEF4FE75FE7C501B4010E94721381114B
:1007D0000DC02FEF3FEF4FE75FE7C501B4010E9467
:1007E000DB1018161CF48CE391E0D4CF2FEF3FEF11
:1007F0004FE75FE4C701B6010E946D1318161CF4A1
:1008000080E491E0C7CF2FEF3FEF4FE75FECC701E8
:10081000B6010E94DB1087FDF3CF20E030E0A90194
:10082000C701B6010E94DB1010E000E087FF0AC09C
:100830006DE289EF91E00E94D1018C01F7FAF0940A
:10084000F7F8F094C0E060E070E080E09FE37C1691
:1008500041F020E030E040E251E40E94C512CF5F59
:10086000F6CFA70196010E9459122B013C010E946C
:100870003E134B015C014AE00E946A037C01E00EDA
:10088000F11ECC23C1F1C501B4010E94E0109B010F
:10089000AC01C301B2010E9458124B015C016EE22F
:1008A00089EF91E00E94D101E80EF91EC15018F1C4
:1008B00020E030E040E251E4C501B4010E94411162
:1008C0002B013C010E943E134B01B12CA12C4AE0AC
:1008D000C501B4010E946A03E80EF91EC501B40106
:1008E0000E94E0109B01AC01C301B2010E945812AA
:1008F0004B015C01DBCFC701CF911F910F91FF909E
:10090000EF90DF90CF90BF90AF909F908F907F90AF
:100910006F905F904F900895EF92FF920F931F9307
:10092000CF93DF9300D000D0CDB7DEB789EF91E051
:100930000E946D0189EF91E00E946D018E010F5FB1
:100940001F4F78018A3341F0F80181938F0189EFBD
:1009500091E00E946D01F6CFC7010E947E0E182F14
:1009600089EF91E00E946D018053990B82309105CF
:1009700020F4682F812F0E94900289EF91E00E945D
:100980006D018A3011F08D30C1F789EF91E00E943E
:1009900081018A3021F489EF91E00E946D010F906E
:1009A0000F900F900F90DF91CF911F910F91FF90BB
:1009B000EF9008950F931F93CF93DF93EC018881FD
:1009C0009981009759F02A813B812617370730F02B
:1009D00081E0DF91CF911F910F9108958B016F5F9F
:1009E0007F4F0E94CA14009759F0998388831B8314
:1009F0000A832C813D81232B59F7FC011082E8CF1B
:100A000080E0E7CFEF92FF920F931F93CF93DF9396
:100A10006115710541F480E0DF91CF911F910F9135
:100A2000FF90EF90089541155105B1F07B01EC0165
:100A30000C811D81040F151FB8010E94DA04882360
:100A400051F3288139818C819D81B701820F931FD9
:100A50000E9490151D830C8381E0DECFFB01448151
:100A60005581608171810C940205CF93DF93EC0175
:100A700088819981009711F00E944114198218828F
:100A80001D821C821B821A82DF91CF910895CF9321
:100A9000DF93EC01FB0101900020E9F73197AF01F2
:100AA000461B570B0E940205811103C0CE010E9414
:100AB0003505CE01DF91CF910895CF93DF93EC01FF
:100AC000FB0144815581608171810E940205811181
:100AD00003C0CE010E943505CE01DF91CF9108956C
:100AE000EF92FF920F931F93CF93DF93EC017B0163
:100AF0008A01BA010E94DA0481110BC0CE010E9462
:100B00003505CE01DF91CF911F910F91FF90EF90AE
:100B100008951D830C83B701888199810E949015E7
:100B2000F0CFEF92FF920F931F93CF93DF93CDB748
:100B3000DEB7A1970FB6F894DEBF0FBECDBF7C0124
:100B4000CB01BA01F7011182108213821282158241
:100B500014828E010F5F1F4F22E044E00E94600E5E
:100B60000097C9F0FC0101900020E9F73197AF012F
:100B7000481B590BBC01C7010E947005A1960FB616
:100B8000F894DEBF0FBECDBFDF91CF911F910F91C3
:100B9000FF90EF900895C7010E943505EFCFFB014C
:100BA000DC0111961C921E9213961C921E921297B3
:100BB00015961C921E9214978617970749F060812C
:100BC00071816115710521F0448155810C94700586
:100BD0000895FC0180819181009711F00C944114DB
:100BE00008951F920F920FB60F9211242F933F93E7
:100BF0004F935F936F937F938F939F93AF93BF9325
:100C0000EF93FF9389EF91E00E94AF01FF91EF9185
:100C1000BF91AF919F918F917F916F915F914F9114
:100C20003F912F910F900FBE0F901F9018951F921C
:100C30000F920FB60F9211242F938F939F93EF93E0
:100C4000FF93E0910902F0910A028081E0910F0286
:100C5000F091100282FD1BC09081809112028F5F83
:100C60008F7320911302821741F0E0911202F0E09D
:100C7000E750FE4F958F80931202FF91EF919F9165
:100C80008F912F910F900FBE0F901F90189580811C
:100C9000F4CF1F920F920FB60F9211242F933F9310
:100CA0008F939F93AF93BF938091BF019091C001A9
:100CB000A091C101B091C2013091BE0123E0230F88
:100CC0002D3758F50196A11DB11D2093BE018093CB
:100CD000BF019093C001A093C101B093C201809164
:100CE000C3019091C401A091C501B091C6010196C4
:100CF000A11DB11D8093C3019093C401A093C501B0
:100D0000B093C601BF91AF919F918F913F912F9169
:100D10000F900FBE0F901F90189526E8230F029694
:100D2000A11DB11DD2CFE9EFF1E01382128288EE4E
:100D300093E0A0E0B0E084839583A683B7838AE242
:100D400091E09183808385EC90E09587848784ECA3
:100D500090E09787868780EC90E0918B808B81EC88
:100D600090E0938B828B82EC90E0958B848B86EC69
:100D700090E0978B868B118E128E138E148EE6E97F
:100D8000F2E0168217821086118612861386148668
:100D9000158616861786108A118A128A138A148A73
:100DA000158AECEDF2E082E0828387E0848389E0BB
:100DB000808386E086838EE0808784E0838388E07A
:100DC00085838AE081838CE087838FE08187128628
:100DD00013860895CF93DF93CDB7DEB7AA970FB6EA
:100DE000F894DEBF0FBECDBF789484B5826084BD19
:100DF00084B5816084BD85B5826085BD85B581601F
:100E000085BD80916E00816080936E00109281009C
:100E10008091810082608093810080918100816057
:100E20008093810080918000816080938000809118
:100E3000B10084608093B1008091B00081608093A4
:100E4000B00080917A00846080937A0080917A006B
:100E5000826080937A0080917A00816080937A002A
:100E600080917A00806880937A001092C10010927D
:100E7000D8021092D9021092DA021092DB0210927C
:100E800098021092990210929A0210929B020E946C
:100E900051036B017C014B015C0128EB820E2BE0BE
:100EA000921EA11CB11C0E9451036C157D058E057C
:100EB0009F0528F086169706A806B906A0F768EEE3
:100EC00073E080E090E00E941F030E9409010E94ED
:100ED0005103609398027093990280939A029093C1
:100EE0009B0284E491E00E94AE030E9451036B01D7
:100EF0007C014B015C013AE0830E911CA11CB11CEA
:100F00000E9451036C157D058E059F0528F08616FD
:100F10009706A806B906A0F781E08093AC020E946C
:100F20005103609398027093990280939A02909370
:100F30009B0285E591E00E94AE030E9409018DE9C4
:100F400091E00E94AE031A8E198E1C8E1B8E1E8E8F
:100F50001D8E4EE050E06CE571E0CE0149960E9496
:100F60007005F6E1EF2EF1E0FF2EA6E0CA2EA1E01B
:100F7000DA2E10E000E0D6018D909D90AD90BD90EE
:100F80006D0120E030E0A901C501B4010E94DB1031
:100F900087FF24C320E030E040EC5FEBC501B401E3
:100FA0000E946D1318160CF019C30115110509F0F4
:100FB0008FC249E858E868E87CE3CE0101960E94B8
:100FC000910540E050E060EF71E4CE0107960E9489
:100FD00091051E861D86188A1F861A8A198A45E081
:100FE00050E06BE671E0CE010D960E947005BE01E7
:100FF000695F7F4FCE010D960E945D0561E771E04C
:101000000E944705BE016F5F7F4F0E945D0566E746
:1010100071E00E944705BC01CE0149960E942E0551
:10102000CE010D960E94E905CE0107960E94E905C2
:10103000CE0101960E94E9050F5F1F4FF4E0EF0E0D
:10104000F11C0430110509F096CF4D8D5E8D698D30
:101050007A8D89EF91E00E943101CE0149960E947C
:10106000E90529E838E848E85CE36091D50170912A
:10107000D6018091D7019091D8010E94591229E898
:1010800038E848E05DE30E94591229E838E848E072
:101090005CE30E94591229E838E848E05CE30E94CA
:1010A00059126093D5017093D6018093D701909324
:1010B000D80161E08091DE020E94BE0261E0809171
:1010C000DF020E94BE0261E08091E0020E94BE0247
:1010D00061E08091DC020E94BE0262E08091E20247
:1010E0000E94BE0260E08091E4020E94BE0261E0C4
:1010F0008091E1020E94BE0261E08091DD020E94C7
:10110000BE0262E08091E3020E94BE0260E0809134
:10111000E5020E94BE028091DC02893081F4809158
:10112000DD028A3061F480EA8093800081E180935F
:10113000810080E991E0909387008093860061E0D0
:101140008091DE020E94900261E08091DF020E94A5
:10115000900261E070E080E090E00E941F0360E098
:1011600083E00E94BE0260E085E00E94BE0283E050
:101170000E9467029093C8018093C7010E945103A7
:101180000E94E0106093F1017093F2018093F301EB
:101190009093F4010E9451030E94E0106093E901D2
:1011A0007093EA018093EB019093EC011092D901C6
:1011B0001092DA011092DB011092DC016091F501CE
:1011C0007091F6018091F7019091F8010E94371318
:1011D0009B01EE24E39477FF05C022273327261BCB
:1011E000370BE12C213941E0340714F020E931E0DC
:1011F000F090DC0259E0F51236C28091DD028A30AF
:1012000009F031C230938900209388008091E00278
:101210009091E60261E09E1101C060E00E949002A0
:1012200083E00E9467028C019093CA018093C901F8
:101230008091C7019091C8010817190791F0011515
:10124000110579F085E00E9467020817190749F433
:101250008091CB019091CC0101969093CC01809329
:10126000CB011093C8010093C7010E9451030E9453
:10127000E0102091F1013091F2014091F301509181
:10128000F4010E9458126B017C01C092ED01D092D2
:10129000EE01E092EF01F092F0010E9451030E94F2
:1012A000E0102091E9013091EA014091EB01509169
:1012B000EC010E9458126093E5017093E60180935F
:1012C000E7019093E80120E030E046E953E4C701EC
:1012D000B6010E946D1318160CF05CC30E945103F6
:1012E000672B682B692B09F41EC20E9451030091E1
:1012F000E1011091E2012091E3013091E4016017D6
:1013000071078207930708F4B6C20091E1011091BA
:10131000E2012091E3013091E4016B017C01C01AEC
:10132000D10AE20AF30A970186010A3F1105210555
:10133000310508F400C26093E1017093E2018093EB
:10134000E3019093E40124EF31E040E050E020938A
:10135000A4023093A5024093A6025093A7021092D4
:10136000A8021092A9021092AA021092AB028091D8
:101370009C0290919D02A0919E02B0919F02809349
:10138000A0029093A102A093A202B093A3020E9494
:10139000510360939C0270939D0280939E029093F0
:1013A0009F0289EF91E00E948101843611F40E942E
:1013B0008C040E9451036093980270939902809369
:1013C0009A0290939B020E9451036B017C0188E872
:1013D00091E00E94AE034AE061E070E080E090E0BE
:1013E0000E946A038FE891E00E94AE034AE0C701C1
:1013F000B6010E946A0381E991E00E94AE038091E8
:101400009C0290919D02A0919E02B0919F02A70123
:101410009601281B390B4A0B5B0BCA01B9014AE044
:101420000E946A0381E991E00E94AE0360919C02F0
:1014300070919D0280919E0290919F020091A00266
:101440001091A1022091A2023091A302601B710BA6
:10145000820B930B4AE00E946A0383E991E00E94A9
:10146000AE030E9451034AE00E946A0385E991E0BD
:101470000E945D038CE991E00E945D030E9451038C
:101480004B015C017C016B0132E0C30ED11CE11CFD
:10149000F11C0E945103681579058A059B0528F007
:1014A000C616D706E806F906A0F789EF91E00E9474
:1014B0008101843611F40E948C040E9451036093D0
:1014C0009C0270939D0280939E0290939F0233C171
:1014D00003301105B1F549E858E868E07CE3CE0136
:1014E00001960E94910540E050E060E773E4CE0170
:1014F0000D960E949105BE01635F7F4FCE01079656
:101500000E94CF056BE771E0CE0107960E94470568
:1015100064E771E00E944705BE016F5F7F4F0E9444
:101520005D0564E871E00E944705BC01CE01499663
:101530000E942E05CE0107960E94E905CE010D9668
:1015400075CDF7014081518162817381CE01019691
:101550000E949105D6014D915D916D917C91CE01D6
:1015600007960E949105F60138974081518162816A
:101570007381CE0143960E949105BE016D5E7F4F3F
:10158000CE010D960E94CF056CE671E0CE010D965E
:101590000E944705BE01695F7F4F0E945D0560E8BC
:1015A00071E00E94470564E771E00E944705BE01B3
:1015B0006F5F7F4F0E945D0566E771E00E944705FF
:1015C000BC01CE0149960E942E05CE010D960E94C7
:1015D000E905CE0143960E94E90526CD03301105A9
:1015E000D1F449E858E868E07CE3CE0101960E9416
:1015F000910540E050E060E773E4CE010D960E9453
:101600009105BE01635F7F4FCE0107960E94CF0513
:1016100060E871E079CFF701408151816281738187
:10162000CE0101960E949105B501A401CE010D964F
:101630000E949105BE01635F7F4FCE0107960E9415
:10164000CF0560E871E0CE0107960E94470564E788
:1016500071E00E944705BE016F5F7F4F0E945D05EC
:1016600066E771E060CFA3E3A29FC001A39F900D46
:10167000112460E570E00E9477138B0161E08F2DEB
:101680000E94BE020115110529F460E08F2D0E9411
:101690009002BCCD0F3F110511F461E0F7CFEF2DA3
:1016A000F0E0E855FE4FE491E33019F140F4E13009
:1016B000B1F0E230C9F0003811057CF7E6CFE73031
:1016C00011F1E83041F1E430B1F78091800080629F
:1016D0008093800010938B0000938A0097CD84B58F
:1016E000806884BD07BD92CD84B5806284BD08BD8D
:1016F0008DCD809180008068809380001093890058
:101700000093880083CD8091B00080688093B00002
:101710000093B3007BCD8091B00080628093B000D5
:101720000093B40073CD0E945103623071058105AE
:10173000910508F0DACD0E9451030E94E01020913B
:10174000F1013091F2014091F3015091F4010E94B6
:1017500058129B01AC012093ED013093EE014093B0
:10176000EF015093F00160E070E080E792E40E94A6
:10177000C51220E030E04AE754E40E9441116B01B9
:101780007C016091CB017091CC01072E000C880B7D
:10179000990B0E94E2109B01AC01C701B6010E94A7
:1017A00041112CEC3CEC44E753E40E94C51210922A
:1017B000CC011092CB016093DD017093DE01809328
:1017C000DF019093E0010E9451030E94E01020E0AD
:1017D0003AEB4BE55AE40E94C5126B017C01AC0167
:1017E0009B0169E878E888E89CE30E94581220E0B1
:1017F00030E0A9010E946D1318160CF445C0A70132
:1018000096016EEC7CEC8CE49DE30E94581220E083
:1018100030E0A9010E946D1318160CF4FAC1A7015B
:10182000960160EF7EEE8EE69DE30E94581220E066
:1018300030E0A9010E946D1318160CF4F5C1A70140
:10184000960169E878E888E89DE30E94581220E054
:1018500030E0A9010E946D13E9E88E2EE8E89E2E83
:10186000A92CEDE3BE2E03E010E01816B4F0412CD5
:10187000512C32017BC06093E1017093E2018093AF
:10188000E3019093E40141CD79E8872E78E8972E23
:10189000A92C7CE3B72E10E000E0412C512C30EF56
:1018A000632E31E4732E0115110509F45FC0412C3C
:1018B000512C20E7622E23E4722E0330110509F427
:1018C00055C01801220C331C220C331CF101EA5FB5
:1018D000FE4F4080518062807380C301B2010E943C
:1018E00037136F3F7F4F09F041C0F101EE5FFE4FAC
:1018F0004080518062807380F101EA5EFE4F8081FA
:101900009181A281B3818F8F98A3A9A3BAA3F1017A
:10191000E65FFE4FA3019201608171818281938114
:101920000E9458122F8D38A149A15AA10E94C512B8
:101930006BA37CA38DA39EA3A5019401C701B6014F
:101940000E9458122F8D38A149A15AA10E94591204
:101950009B01AC016BA17CA18DA19EA10E944111B4
:10196000A30192010E9459122B013C014092D9011E
:101970005092DA016092DB017092DC010E94510307
:101980000E94E0106093F1017093F2018093F301E3
:101990009093F40120E030E04AE754E46091E501DF
:1019A0007091E6018091E7019091E8010E946D132A
:1019B00018160CF076C10E9451030E94E01020E03E
:1019C00030E04AE754E40E94C51242E00E94B003AE
:1019D0008FE991E00E94AE036091D9017091DA0124
:1019E0008091DB019091DC0142E00E94B0038FE91D
:1019F00091E00E94AE036091DD017091DE01809163
:101A0000DF019091E00142E00E94B0038FE991E094
:101A10000E94AE03C090D101D090D201E090D301DA
:101A2000F090D401CF8ED8A2E9A2FAA2C090D90139
:101A3000D090DA01E090DB01F090DC01CBA2DCA2D7
:101A4000EDA2FEA2C090DD01D090DE01E090DF01AA
:101A5000F090E001CFA2D8A6E9A6FAA6A7019601C8
:101A60006BA17CA18DA19EA10E9458126B017C01EB
:101A7000C092D101D092D201E092D301F092D40170
:101A80004090ED015090EE016090EF017090F001F8
:101A9000AC019B016F8D78A189A19AA10E94591276
:101AA00020E030E040E05FE30E944111A301920199
:101AB0000E94411120E030E04AE754E40E94C51240
:101AC0002091CD013091CE014091CF015091D001B4
:101AD0000E9459124B015C018092CD019092CE017F
:101AE000A092CF01B092D0012F8D38A149A15AA167
:101AF000C701B6010E94581226EA3BE944EC5BE3B9
:101B00000E944111A30192010E94C51220E030E021
:101B10004AE754E40E9441112B013C0126EA3BE9CB
:101B200044EC5BE3C701B6010E9441116B017C01EB
:101B30002FE832EC45EF5CE3C501B4010E9441118E
:101B40009B01AC01C701B6010E9459129B01AC0177
:101B5000C301B2010E9459126B017C0120E030E008
:101B6000A9010E946D1318160CF069C020E030E046
:101B700048EC53E4C701B6010E94DB1087FF63C045
:101B8000C092F501D092F601E092F701F092F801CF
:101B900020E030E0A9016BA17CA18DA19EA10E9453
:101BA000DB10811157C020E030E0A9016FA178A5BA
:101BB00089A59AA50E94DB1081114CC01092F501F5
:101BC0001092F6011092F7011092F8010E94510351
:101BD0000E94E01020E03AEB4BE55AE40E94C51267
:101BE0002091D5013091D6014091D7015091D80173
:101BF0000E946D13181674F58EE991E00E945D0342
:101C00008CE991E00E945D0381EA91E00E94AE03BD
:101C1000FFCF6EEC862E6CEC962E6CE4A62E6DE358
:101C2000B62E01E010E039CE50EF852E5EEE952EF7
:101C30005EE6A52E5DE3B52E02E010E02ECEC12CAF
:101C4000D12C76019DCFC12CD12C98ECE92E93E4B8
:101C5000F92E96CF20E030E048EC53E46091F50196
:101C60007091F6018091F7019091F8010E94C512E0
:101C700020E030E040E451E40E94411142E00E9443
:101C8000B0038CE991E00E945D030E9451030E9421
:101C9000E0106093E9017093EA018093EB01909367
:101CA000EC0180E0E82E80E0F82EEF2809F486CAE7
:101CB0000E949B01882309F481CA0E9400007ECA09
:101CC000EF920F931F93CF93DF93E80134E047FD2A
:101CD00034E1042E000C550B57FF03C0519541957C
:101CE0005109E32E022F242FAE010E94A40ECE0133
:101CF000DF91CF911F910F91EF900895FC018827FC
:101D00009927E89421912032E9F3293010F02E3000
:101D1000C8F32B3241F02D3239F4689404C00E948C
:101D20009C0E820F911D219120532A30C0F31EF486
:101D3000909581959F4F08957AE0979F902D879F6A
:101D4000802D910D11240895A9E0B0E0EAEAFEE0AB
:101D50000C9427126A01F22EB02E102FFBE3AF2E47
:101D6000A01608F41BE31F5F012F27E0AE014F5FB1
:101D70005F4F0E940310BC018981982F99709130A8
:101D800009F43FC09BE2E1FC04C09E2D9170E0FC91
:101D90003AC05E2D5071E82FE87083FF46C084E0A2
:101DA000911101C083E0EF2DE81B8F1508F0E0E0F2
:101DB000D6018E2F20E2552351F1992329F0D60127
:101DC0009C93C60101966C0196012D5F3F4FE2FE88
:101DD00024C08EE4D6018C9391E411969C931197C4
:101DE00012968C93D9018E2F90E281111BC0E20FC5
:101DF000F32FF11D10828EEF9FEF2996ECE00C94EB
:101E000043129DE2C6CF90E2C4CF2D938150811141
:101E1000FCCFCE0ED11CE0E0D0CF8EE6D6018C9365
:101E200091E6DBCF9D938150E0CF482F447082FF35
:101E30003DC084E0911101C083E08F1510F4EF2DB7
:101E4000E81BD6018E2F20E2552309F1992329F0B2
:101E5000D6019C93C60101966C0196012D5F3F4F00
:101E6000E2FE1BC089E4D6018C938EE411968C931C
:101E7000119786E412968C93D9018E2F90E28823D5
:101E800009F4B5CF9D938150FACF2D9381508111E4
:101E9000FCCFCE0ED11CE0E0D9CF89E6D6018C93E1
:101EA0008EE611968C93119786E6E4CF9B0177FF1F
:101EB00002C030E020E0A1E0B0E0911102C0B0E04B
:101EC000A0E0F9013196AE0FBF1F8B2C912CBB20E7
:101ED00009F461C05401EFEFAE1ABE0AAA0DBB1D92
:101EE000FA161B0619F014F04F2D4A1B511188C029
:101EF000E3FC59C07601A42FB0E2A1114FC0C40E7B
:101F0000D11C992309F45BC040E0D6011196F6017B
:101F100090836D01552309F448C0012F060F9A8163
:101F2000582F507184FF03C0913309F401501016EB
:101F30000CF047C0093008F008E0EEE2FE2E5B012D
:101F4000A01AB10885019194819491082F3F32071E
:101F500029F4D601FC92F60131966F0162177307DE
:101F600094F1021713077CF5DB01A21BB30BAA2423
:101F7000A394B12CAC0EBD1EAA0DBB1D11968C9165
:101F800021503109D601119628153905F4F0F601D2
:101F900080836D01DBCFB12CA12CA0CFF701B193D1
:101FA0007F01A150AACF9111B0CFD601942F50E359
:101FB00002C05D9391509111FCCFC40ED11C40E042
:101FC000ACCF01E0BACF80E3DBCF6217730731F407
:101FD000963388F4953311F4552369F0F601808324
:101FE000FD01842F90E2811108C0A40FB11D1C9245
:101FF00090E080E002CF81E3F1CF91938150F3CF65
:10200000911183CF8ACF283008F027E03327DA01F7
:10201000990F311D87FD916000966105710539F4B6
:1020200032602E5F3D9330E32A95E1F708959F3F9C
:1020300030F080387105610509F03C5F3C5F3D93ED
:10204000913008F08068911DDF93CF931F930F9319
:10205000FF92EF92192F987F9695E92F9695969576
:10206000E90FFF27EE53FF4F99273327EE24FF2474
:10207000A701E70105900894079428F4360FE71E9E
:10208000F81E491F511D660F771F881F991F069460
:10209000A1F70590079428F4E70EF81E491F561F74
:1020A000C11D770F881F991F661F0694A1F7059021
:1020B000079428F4F80E491F561FC71FD11D880F1B
:1020C000991F661F771F0694A1F70590079420F4C7
:1020D000490F561FC71FD81F990F661F771F881FEC
:1020E0000694A9F784911095177041F0D695C7957D
:1020F00057954795F794E7941A95C1F7E8E6F0E00D
:1021000068941590159135916591959105907FE2B0
:102110007395E118F10A430B560BC90BD009C0F7B0
:10212000E10CF11E431F561FC91FD01D7EF47033F2
:1021300011F48A95E6CFE894015030F0080F0AF4C4
:102140000027021708F4202F2395022F7A3328F056
:1021500079E37D932A95E9F710C07D932A9589F656
:10216000069497956795379517951794E118F10A96
:10217000430B560BC90BD00998F023957E917395AC
:102180007A3308F070E37C932013B8F77E91706186
:102190007D9330F0839571E37D9370E32A95E1F7A9
:1021A0001124EF90FF900F911F91CF91DF9199270C
:1021B00087FD909508950E941D1108F481E008950F
:1021C000E89409C097FB3EF49095809570956195D1
:1021D0007F4F8F4F9F4F9923A9F0F92F96E9BB2787
:1021E0009395F695879577956795B795F111F8CF03
:1021F000FAF4BB0F11F460FF1BC06F5F7F4F8F4F6E
:102200009F4F16C0882311F096E911C0772321F063
:102210009EE8872F762F05C0662371F096E8862FFB
:1022200070E060E02AF09A95660F771F881FDAF752
:10223000880F9695879597F90895990F0008550F7F
:10224000AA0BE0E8FEEF16161706E807F907C0F03C
:1022500012161306E407F50798F0621B730B840B44
:10226000950B39F40A2661F0232B242B252B21F41E
:1022700008950A2609F4A140A6958FEF811D811DBE
:1022800008950E9454110C94C5110E94B71138F0A2
:102290000E94BE1120F0952311F00C94AE110C9405
:1022A000B41111240C94F9110E94D61170F3959F6A
:1022B000C1F3950F50E0551F629FF001729FBB273D
:1022C000F00DB11D639FAA27F00DB11DAA1F649FD9
:1022D0006627B00DA11D661F829F2227B00DA11D8C
:1022E000621F739FB00DA11D621F839FA00D611D12
:1022F000221F749F3327A00D611D231F849F600D33
:10230000211D822F762F6A2F11249F5750409AF05B
:10231000F1F088234AF0EE0FFF1FBB1F661F771FE7
:10232000881F91505040A9F79E3F510580F00C94B2
:10233000AE110C94F9115F3FE4F3983ED4F3869507
:1023400077956795B795F795E7959F5FC1F7FE2B52
:10235000880F911D9695879597F9089597F99F672E
:1023600080E870E060E008959FEF80EC089500241D
:102370000A941616170618060906089500240A94EA
:1023800012161306140605060895092E0394000C70
:1023900011F4882352F0BB0F40F4BF2B11F460FFFF
:1023A00004C06F5F7F4F8F4F9F4F089557FD905828
:1023B000440F551F59F05F3F71F04795880F97FB09
:1023C000991F61F09F3F79F08795089512161306C3
:1023D0001406551FF2CF4695F1DF08C016161706F2
:1023E0001806991FF1CF8695710561050894089527
:1023F000E894BB2766277727CB0197F90895A1E2D8
:102400001A2EAA1BBB1BFD010DC0AA1FBB1FEE1F6E
:10241000FF1FA217B307E407F50720F0A21BB30BB9
:10242000E40BF50B661F771F881F991F1A9469F735
:1024300060957095809590959B01AC01BD01CF0191
:1024400008952F923F924F925F926F927F928F9258
:102450009F92AF92BF92CF92DF92EF92FF920F9333
:102460001F93CF93DF93CDB7DEB7CA1BDB0B0FB63D
:10247000F894DEBF0FBECDBF09942A8839884888FA
:102480005F846E847D848C849B84AA84B984C88490
:10249000DF80EE80FD800C811B81AA81B981CE0F87
:1024A000D11D0FB6F894DEBF0FBECDBFED0108956C
:1024B0005058BB27AA270E9470120C94C5110E9485
:1024C000B71138F00E94BE1120F039F49F3F19F483
:1024D00026F40C94B4110EF4E095E7FB0C94AE11C5
:1024E000E92F0E94D61158F3BA17620773078407C1
:1024F000950720F079F4A6F50C94F8110EF4E09508
:102500000B2EBA2FA02D0B01B90190010C01CA01AD
:10251000A0011124FF27591B99F0593F50F4503E58
:1025200068F11A16F040A22F232F342F4427585F4A
:10253000F3CF469537952795A795F0405395C9F762
:102540007EF41F16BA0B620B730B840BBAF091501A
:10255000A1F0FF0FBB1F661F771F881FC2F70EC0B9
:10256000BA0F621F731F841F48F48795779567958C
:10257000B795F7959E3F08F0B0CF9395880F08F078
:102580009927EE0F9795879508950E94D9120C947C
:10259000C5110E94BE1158F00E94B71140F029F4F5
:1025A0005F3F29F00C94AE1151110C94F9110C9469
:1025B000B4110E94D61168F39923B1F3552391F316
:1025C000951B550BBB27AA2762177307840738F0A2
:1025D0009F5F5F4F220F331F441FAA1FA9F335D0FF
:1025E0000E2E3AF0E0E832D091505040E695001CB3
:1025F000CAF72BD0FE2F29D0660F771F881FBB1F6D
:10260000261737074807AB07B0E809F0BB0B802D4A
:10261000BF01FF2793585F4F3AF09E3F510578F076
:102620000C94AE110C94F9115F3FE4F3983ED4F38F
:10263000869577956795B795F7959F5FC9F7880F4A
:10264000911D9695879597F90895E1E0660F771F9C
:10265000881FBB1F621773078407BA0720F0621B2D
:10266000730B840BBA0BEE1F88F7E09508950E9458
:102670003E136894B1110C94F91108950E94DE1173
:1026800088F09F5798F0B92F9927B751B0F0E1F033
:10269000660F771F881F991F1AF0BA95C9F714C0E3
:1026A000B13091F00E94F811B1E008950C94F81146
:1026B000672F782F8827B85F39F0B93FCCF386951C
:1026C00077956795B395D9F73EF490958095709579
:1026D00061957F4F8F4F9F4F08950E941D1108F401
:1026E0008FEF08950E941D11880B990B089597FB99
:1026F000072E16F4009407D077FD09D00E948B13A3
:1027000007FC05D03EF4909581959F4F08957095F4
:1027100061957F4F0895AA1BBB1B51E107C0AA1FFB
:10272000BB1FA617B70710F0A61BB70B881F991F72
:102730005A95A9F780959095BC01CD010895EE0FAB
:10274000FF1F0590F491E02D09940F931F93CF93F1
:10275000DF938230910510F482E090E0E091EA028C
:10276000F091EB0230E020E0B0E0A0E0309799F487
:102770002115310509F44AC0281B390B24303105D5
:10278000D8F58A819B816115710589F1FB019383DD
:102790008283FE0111C0408151810281138148175B
:1027A0005907E0F04817590799F4109761F012960D
:1027B0000C93129713961C933296CF01DF91CF9111
:1027C0001F910F9108950093EA021093EB02F4CF4A
:1027D0002115310551F04217530738F0A901DB01EB
:1027E0009A01BD01DF01F801C1CFEF01F9CF90934C
:1027F000EB028093EA02CDCFFE01E20FF31F81933B
:1028000091932250310939832883D7CF2091E80250
:102810003091E902232B41F4209102013091030110
:102820003093E9022093E8022091000130910101E8
:102830002115310541F42DB73EB740910401509167
:102840000501241B350BE091E802F091E902E21743
:10285000F307A0F42E1B3F0B2817390778F0AC01C3
:102860004E5F5F4F2417350748F04E0F5F1F5093A0
:10287000E9024093E802819391939FCFF0E0E0E07A
:102880009CCFCF93DF930097E9F0FC01329713823E
:102890001282A091EA02B091EB02ED0130E020E05B
:1028A0001097A1F420813181820F931F2091E802BB
:1028B0003091E9022817390709F061C0F093E90265
:1028C000E093E802DF91CF910895EA01CE17DF0788
:1028D000E8F54A815B819E0141155105B1F7E90197
:1028E000FB83EA8349915991C40FD51FEC17FD076B
:1028F00061F4808191810296840F951FE90199838B
:102900008883828193819B838A83F0E0E0E0129642
:102910008D919C9113970097B9F52D913C9111974A
:10292000CD010296820F931F2091E8023091E902B7
:102930002817390739F6309751F51092EB021092AB
:10294000EA02B093E902A093E802BCCFD383C2832A
:1029500040815181840F951FC817D90761F44E5FDC
:102960005F4F88819981480F591F518340838A8125
:102970009B81938382832115310509F0B0CFF093B9
:10298000EB02E093EA029ECFFD01DC01C0CF13828F
:102990001282D7CFB0E0A0E0E0EDF4E10C94231276
:1029A0008C01009751F4CB010E94A5138C01C80142
:1029B000CDB7DEB7E0E10C943F12FC01E60FF71F44
:1029C0009C0122503109E217F30708F49DC0D90198
:1029D000CD91DC911197C617D70798F0C530D10576
:1029E00030F3CE0104978617970708F3C61BD70B61
:1029F0002297C193D1936D937C93CF010E94411490
:102A0000D6CF5B01AC1ABD0A4C018C0E9D1EA09165
:102A1000EA02B091EB02512C412CF12CE12C1097E1
:102A200031F58091E8029091E9028815990509F045
:102A30005CC04616570608F058C08091000190917E
:102A40000101009741F48DB79EB740910401509168
:102A50000501841B950BE817F90708F055C0F093A2
:102A6000E902E093E802F90171836083A0CF8D91C0
:102A70009C91119712966C90129713967C901397D5
:102A8000A815B90559F56C0142E0C40ED11CCA1451
:102A9000DB0420F1AC014A195B09DA0112961597A3
:102AA00080F06282738251834083D9016D937C935D
:102AB000E114F10471F0D7011396FC93EE93129791
:102AC00076CF22968C0F9D1FF90191838083F301AD
:102AD000EFCFF093EB02E093EA0269CF4816590674
:102AE00008F42C017D01D3019ACFCB010E94A513DC
:102AF0007C01009749F0AE01B8010E948715C8011A
:102B00000E944114870153CF10E000E050CFFB0139
:102B1000DC0102C001900D9241505040D8F7089559
:102B2000FB01DC0101900D920020E1F70895F8947B
:022B3000FFCFD5
:102B32000000EC0280000000F041000080BF0000B5
:102B42007042000070438988883C8988083D8988E2
:102B5200083C8988083C00000000D10131015E0177
:102B62001E028F016D0181016E616E00696E660049
:102B72006F766600564D4450565F317C315F564D3C
:102B82004450560A00564D4450525F0054696D65D8
:102B9200205363686564756C650A003072706D7EDF
:102BA2000072706D280068292D3E0072706D7E30B3
:102BB20072706D0068290A00564D4450455F003A14
:102BC200323A007C005F564D445045000D0A002CFD
:102BD2000050726F6772616D65642073636865642B
:0E2BE200756C652066696E6973686564000035
:107E0000112484B714BE81FFF0D085E080938100F7
:107E100082E08093C00088E18093C10086E0809377
:107E2000C20080E18093C4008EE0C9D0259A86E02C
:107E300020E33CEF91E0309385002093840096BBD3
:107E4000B09BFECF1D9AA8958150A9F7CC24DD24C4
:107E500088248394B5E0AB2EA1E19A2EF3E0BF2EE7
:107E6000A2D0813461F49FD0082FAFD0023811F036
:107E7000013811F484E001C083E08DD089C08234E0
:107E800011F484E103C0853419F485E0A6D080C0E4
:107E9000853579F488D0E82EFF2485D0082F10E0AE
:107EA000102F00270E291F29000F111F8ED06801E7
:107EB0006FC0863521F484E090D080E0DECF843638
:107EC00009F040C070D06FD0082F6DD080E0C81688
:107ED00080E7D80618F4F601B7BEE895C0E0D1E017
:107EE00062D089930C17E1F7F0E0CF16F0E7DF06D8
:107EF00018F0F601B7BEE89568D007B600FCFDCFD4
:107F0000A601A0E0B1E02C9130E011968C91119780
:107F100090E0982F8827822B932B1296FA010C0160
:107F200087BEE89511244E5F5F4FF1E0A038BF0790
:107F300051F7F601A7BEE89507B600FCFDCF97BE46
:107F4000E89526C08437B1F42ED02DD0F82E2BD052
:107F50003CD0F601EF2C8F010F5F1F4F84911BD097
:107F6000EA94F801C1F70894C11CD11CFA94CF0C13
:107F7000D11C0EC0853739F428D08EE10CD085E9AC
:107F80000AD08FE07ACF813511F488E018D01DD067
:107F900080E101D065CF982F8091C00085FFFCCF94
:107FA0009093C60008958091C00087FFFCCF809118
:107FB000C00084FD01C0A8958091C6000895E0E648
:107FC000F0E098E1908380830895EDDF803219F02E
:107FD00088E0F5DFFFCF84E1DECF1F93182FE3DFCA
:107FE0001150E9F7F2DF1F91089580E0E8DFEE27F6
:047FF000FF270994CA
:027FFE00040479
:0400000300007E007B
:00000001FF